:100000000C943E010C94EC120C94C5120C946601F5
:100010000C9466010C9466010C9466010C946601C4
:100020000C9466010C9466010C9466010C946601B4
:100030000C9466010C9466010C9466010C946601A4
:100040000C947B120C9466010C9466010C9466016E
:100050000C9466010C9466010C9466010C94660184
:100060000C94A3130C946601EA18C81A601C6C1C4B
:10007000781C841C961CA31F541DA31DF21D421E38
:10008000911EE91E421FA7024503E30381041F05D9
:10009000BD055B06F90697073508E808EB08EE088A
:1000A000F108F408F708FA0800000F110F0509001D
:1000B000000012151D15120000000E1107110E0090
:1000C000000010101E111E00000011111D131D0054
:1000D000000018080E090E000000151515151F0167
:1000E0000000151515151F00000011110F0101006A
:1000F0000000121212121F010000040E150E04005F
:1001000000001F040404040000001F11111111005D
:10011000000011111F1111000000111B1511110019
:100120000000070909091100000012141814120038
:100130000A041113151911000000111315191100EB
:1001400000000E1106110E00000015150E15150009
:100150000A000E111F100F000000060A0A0A1F11E4
:1001600000001E101010100000001E111E111E00B5
:10017000030C101E11110E000F11110F05091100B3
:100180001215151D151512000E11010701110E0093
:100190001010101E11111E001111111D13131D003E
:1001A0001808080E09090E001111111515151F0167
:1001B0001111111515151F001111110F0101010069
:1001C0001212121212121F01040E1515150E040040
:1001D0001111110F01110E001F1111111111110038
:1001E0000709090909091100151111131519110041
:1001F00011111113151911000E11010601110E0034
:100200001515150E15151500060A0A0A0A0A1F11FA
:100210001F101010101010001F10101E11111E00C2
:1002200000000000240027002A0000000000250034
:1002300028002B00000000002300260029000404F1
:10024000040404040404020202020202030303037E
:10025000030301020408102040800102040810205A
:100260000102040810200000000800020100000341
:1002700004070000000000000000A52011241FBE9C
:10028000CFEFD8E0DEBFCDBF12E0A0E0B1E0E8EDF7
:10029000F8E402C005900D92AC37B107D9F723E01E
:1002A000ACE7B2E001C01D92A13BB207E1F711E05B
:1002B000CEE3D1E004C02197FE010E942421CD337A
:1002C000D107C9F70E9496150C946A240C9400007B
:1002D00040917D03262F30E0240F311D213231055E
:1002E000DCF42091DB022430C9F4FC0180E090E0D2
:1002F000861758F430917D032191DC01A35ABC4F3D
:10030000A30FB11D2C930196F3CF80917D03680F4D
:1003100060937D0380E0089581E0089582E0089570
:100320000895E091B4028091B302E81730F4F0E050
:10033000E458FD4F808190E008958FEF9FEF08957E
:100340009091B4028091B302981750F4E92FF0E035
:10035000E458FD4F208130E09F5F9093B40202C0CB
:100360002FEF3FEFC90108958091B30290E02091F3
:10037000B402821B91090895CF92DF92EF92FF920F
:100380000F931F93CF93DF937C01262F972F8A0122
:100390008091DC02882391F0C62FD72F6E01C40E06
:1003A000D51ECC15DD0571F06991D701ED91FC9159
:1003B0000190F081E02DC7010995F3CF642F822FC2
:1003C0000E946801C801DF91CF911F910F91FF90AA
:1003D000EF90DF90CF900895CF93DF931F92CDB72A
:1003E000DEB769832091DC022223D1F02091FE0246
:1003F000203240F021E030E0FC013383228380E0B2
:1004000090E015C08091DD02E82FF0E0E252FD4F50
:10041000998190838F5F8093DD028093FE0205C0F7
:1004200061E0CE0101960E94680181E090E00F90AA
:10043000DF91CF9108950C94E0090C94E0090C949D
:1004400025240C941D24CF92DF92EF92FF920F93FC
:100450001F93CF93DF93EC018B0160E087E00E9454
:100460008D0BF801C080D180E480F58000E010E0C1
:100470000E151F055CF5F601E00FF11F2081422FDC
:10048000022E000C550BCA01807C9927803C9105F7
:1004900089F4918197FF0EC02F71892F8F73082ED9
:1004A000000C990BAC01F0E42F9F400D511D11245D
:1004B00082E001C081E0080F111DCA010E942E0CCC
:1004C000809119038F5F80931903D2CF61E080E0A0
:1004D0000E948D0B8BEF91E00E944B1062E080E058
:1004E0000E948D0B86E092E00E944B1061E08BE051
:1004F0000E948D0B84E292E00E944B100E947E15B8
:10050000882341F080919C028F5F8A3064F01092C2
:100510009C020BC00E947015882339F080919C02C8
:10052000815087FD89E080939C02E0919C028E2F90
:10053000EE0F990BAA0BBB0B8A30910508F031C660
:10054000FC01ED5BFF4F61E085E00C9424210E94EB
:100550008D0B6EE78BE093E00E94681361E086E00C
:100560000E948D0B88818A3024F482E691E00E94FB
:100570004B108881082E000C990B0E94EF1480E923
:1005800091E00E944B1089818A3024F482E691E048
:100590000E944B108981082E000C990B0E94EF14C9
:1005A00061E08DE00E948D0B86ED91E00E944B1082
:1005B00061E08EE00E948D0B8A81082E000C990B61
:1005C0000E94EF1487E292E00E944B1063E084E007
:1005D0000E948D0B86ED91E00E944B108C81082EBD
:1005E000000C990B0E94EF1486ED91E00E944B10D5
:1005F0008D81082E000C990B0E94EF1486ED91E07E
:100600000E944B108E81082E000C990B0E94EF1453
:1006100086ED91E00E944B108F81082E000C990B03
:100620000E94EF1486ED91E00E944B108885082E01
:10063000000C990B0E94EF1486ED91E00E944B1084
:100640008985082E000C990B0E94EF1486ED91E02D
:100650000E944B108B81082E000C990B0E94EF1406
:100660000E94E014882331F088818F5F88315CF02C
:10067000188297C50E94D114882309F492C58881F5
:10068000815087FD87E188838CC50E948D0B86EDA4
:1006900091E00E944B1061E086E00E948D0B888102
:1006A0008A3024F482E691E00E944B108881082E63
:1006B000000C990B0E94EF146EE78BE093E00E9410
:1006C000681389818A3024F482E691E00E944B10FD
:1006D0008981082E000C990B0E94EF1461E08DE0D7
:1006E0000E948D0B86ED91E00E944B1061E08EE040
:1006F0000E948D0B8A81082E000C990B0E94EF142A
:1007000087E292E00E944B1063E084E00E948D0B30
:1007100086ED91E00E944B108C81082E000C990B05
:100720000E94EF1486ED91E00E944B108D81082EFF
:10073000000C990B0E94EF1486ED91E00E944B1083
:100740008E81082E000C990B0E94EF1486ED91E02B
:100750000E944B108F81082E000C990B0E94EF1401
:1007600086ED91E00E944B108885082E000C990BB5
:100770000E94EF1486ED91E00E944B108985082EAF
:10078000000C990B0E94EF1486ED91E00E944B1033
:100790008B81082E000C990B0E94EF140E94E0142C
:1007A000882331F089818F5F8B335CF01982F9C423
:1007B0000E94D114882309F4F4C48981815087FDF3
:1007C0008CE38983EEC40E948D0B86ED91E00E943C
:1007D0004B1061E086E00E948D0B88818A3024F402
:1007E00082E691E00E944B108881082E000C990B44
:1007F0000E94EF1480E991E00E944B1089818A30B9
:1008000024F482E691E00E944B108981082E000CAE
:10081000990B0E94EF1461E08DE00E948D0B6EE752
:100820008BE093E00E94681361E08EE00E948D0BE4
:100830008A81082E000C990B0E94EF1487E292E047
:100840000E944B1063E084E00E948D0B86ED91E0E6
:100850000E944B108C81082E000C990B0E94EF1403
:1008600086ED91E00E944B108D81082E000C990BB3
:100870000E94EF1486ED91E00E944B108E81082EAD
:10088000000C990B0E94EF1486ED91E00E944B1032
:100890008F81082E000C990B0E94EF1486ED91E0D9
:1008A0000E944B108885082E000C990B0E94EF14B3
:1008B00086ED91E00E944B108985082E000C990B63
:1008C0000E94EF1486ED91E00E944B108B81082E60
:1008D000000C990B0E94EF140E94E014882331F061
:1008E0008A818F5F8C335CF01A825BC40E94D114C2
:1008F000882309F456C48A81815087FD8BE38A835B
:1009000050C40E948D0B86ED91E00E944B1061E077
:1009100086E00E948D0B88818A3024F482E691E083
:100920000E944B108881082E000C990B0E94EF1436
:1009300080E991E00E944B1089818A3024F482E69C
:1009400091E00E944B108981082E000C990B0E94A7
:10095000EF1461E08DE00E948D0B86ED91E00E9426
:100960004B1061E08EE00E948D0B8A81082E000CF6
:10097000990B0E94EF1487E292E00E944B1063E013
:1009800084E00E948D0B6EE78BE093E00E94681379
:100990008C81082E000C990B0E94EF1486ED91E0DB
:1009A0000E944B108D81082E000C990B0E94EF14B1
:1009B00086ED91E00E944B108E81082E000C990B61
:1009C0000E94EF1486ED91E00E944B108F81082E5B
:1009D000000C990B0E94EF1486ED91E00E944B10E1
:1009E0008885082E000C990B0E94EF1486ED91E08B
:1009F0000E944B108985082E000C990B0E94EF1461
:100A000086ED91E00E944B108B81082E000C990B13
:100A10000E94EF140E94E014882331F08C818F5FD4
:100A200082305CF01C82BDC30E94D114882309F47B
:100A3000B8C38C81815087FD81E08C83B2C30E9452
:100A40008D0B86ED91E00E944B1061E086E00E94E4
:100A50008D0B88818A3024F482E691E00E944B104D
:100A60008881082E000C990B0E94EF1480E991E018
:100A70000E944B1089818A3024F482E691E00E9422
:100A80004B108981082E000C990B0E94EF1461E035
:100A90008DE00E948D0B86ED91E00E944B1061E08D
:100AA0008EE00E948D0B8A81082E000C990B0E940B
:100AB000EF1487E292E00E944B1063E084E00E9412
:100AC0008D0B86ED91E00E944B108C81082E000C5E
:100AD000990B0E94EF146EE78BE093E00E9468137D
:100AE0008D81082E000C990B0E94EF1486ED91E089
:100AF0000E944B108E81082E000C990B0E94EF145F
:100B000086ED91E00E944B108F81082E000C990B0E
:100B10000E94EF1486ED91E00E944B108885082E0C
:100B2000000C990B0E94EF1486ED91E00E944B108F
:100B30008985082E000C990B0E94EF1486ED91E038
:100B40000E944B108B81082E000C990B0E94EF1411
:100B50000E94E014882331F08D818F5F82305CF039
:100B60001D821FC30E94D114882309F41AC38D81EA
:100B7000815087FD81E08D8314C30E948D0B86ED2B
:100B800091E00E944B1061E086E00E948D0B88810D
:100B90008A3024F482E691E00E944B108881082E6E
:100BA000000C990B0E94EF1480E991E00E944B1019
:100BB00089818A3024F482E691E00E944B10898179
:100BC000082E000C990B0E94EF1461E08DE00E944A
:100BD0008D0B86ED91E00E944B1061E08EE00E944B
:100BE0008D0B8A81082E000C990B0E94EF1487E26E
:100BF00092E00E944B1063E084E00E948D0B86ED32
:100C000091E00E944B108C81082E000C990B0E94E1
:100C1000EF1486ED91E00E944B108D81082E000CA0
:100C2000990B0E94EF146EE78BE093E00E9468132B
:100C30008E81082E000C990B0E94EF1486ED91E036
:100C40000E944B108F81082E000C990B0E94EF140C
:100C500086ED91E00E944B108885082E000C990BC0
:100C60000E94EF1486ED91E00E944B108985082EBA
:100C7000000C990B0E94EF1486ED91E00E944B103E
:100C80008B81082E000C990B0E94EF140E94E01437
:100C9000882331F08E818F5F82305CF01E8281C2AA
:100CA0000E94D114882309F47CC28E81815087FD73
:100CB00081E08E8376C20E948D0B86ED91E00E94CA
:100CC0004B1061E086E00E948D0B88818A3024F40D
:100CD00082E691E00E944B108881082E000C990B4F
:100CE0000E94EF1480E991E00E944B1089818A30C4
:100CF00024F482E691E00E944B108981082E000CBA
:100D0000990B0E94EF1461E08DE00E948D0B86ED3F
:100D100091E00E944B1061E08EE00E948D0B8A8171
:100D2000082E000C990B0E94EF1487E292E00E94BB
:100D30004B1063E084E00E948D0B86ED91E00E94F1
:100D40004B108C81082E000C990B0E94EF1486ED3D
:100D500091E00E944B108D81082E000C990B0E948F
:100D6000EF1486ED91E00E944B108E81082E000C4E
:100D7000990B0E94EF146EE78BE093E00E946813DA
:100D80008F81082E000C990B0E94EF1486ED91E0E4
:100D90000E944B108885082E000C990B0E94EF14BE
:100DA00086ED91E00E944B108985082E000C990B6E
:100DB0000E94EF1486ED91E00E944B108B81082E6B
:100DC000000C990B0E94EF140E94E014882331F06C
:100DD0008F818F5F82305CF01F82E3C10E94D1144B
:100DE000882309F4DEC18F81815087FD81E08F83E4
:100DF000D8C10E948D0B86ED91E00E944B1061E0FE
:100E000086E00E948D0B88818A3024F482E691E08E
:100E10000E944B108881082E000C990B0E94EF1441
:100E200080E991E00E944B1089818A3024F482E6A7
:100E300091E00E944B108981082E000C990B0E94B2
:100E4000EF1461E08DE00E948D0B86ED91E00E9431
:100E50004B1061E08EE00E948D0B8A81082E000C01
:100E6000990B0E94EF1487E292E00E944B1063E01E
:100E700084E00E948D0B86ED91E00E944B108C81E6
:100E8000082E000C990B0E94EF1486ED91E00E9451
:100E90004B108D81082E000C990B0E94EF1486EDEB
:100EA00091E00E944B108E81082E000C990B0E943D
:100EB000EF1486ED91E00E944B108F81082E000CFC
:100EC000990B0E94EF146EE78BE093E00E94681389
:100ED0008885082E000C990B0E94EF1486ED91E096
:100EE0000E944B108985082E000C990B0E94EF146C
:100EF00086ED91E00E944B108B81082E000C990B1F
:100F00000E94EF140E94E014882331F088858F5FDF
:100F100082305CF0188645C10E94D114882309F400
:100F200040C18885815087FD81E088873AC10E9451
:100F30008D0B86ED91E00E944B1061E086E00E94EF
:100F40008D0B88818A3024F482E691E00E944B1058
:100F50008881082E000C990B0E94EF1480E991E023
:100F60000E944B1089818A3024F482E691E00E942D
:100F70004B108981082E000C990B0E94EF1461E040
:100F80008DE00E948D0B86ED91E00E944B1061E098
:100F90008EE00E948D0B8A81082E000C990B0E9416
:100FA000EF1487E292E00E944B1063E084E00E941D
:100FB0008D0B86ED91E00E944B108C81082E000C69
:100FC000990B0E94EF1486ED91E00E944B108D81E9
:100FD000082E000C990B0E94EF1486ED91E00E9400
:100FE0004B108E81082E000C990B0E94EF1486ED99
:100FF00091E00E944B108F81082E000C990B0E94EB
:10100000EF1486ED91E00E944B108885082E000CAD
:10101000990B0E94EF146EE78BE093E00E94681337
:101020008985082E000C990B0E94EF1486ED91E043
:101030000E944B108B81082E000C990B0E94EF141C
:101040000E94E014882331F089858F5F82305CF044
:101050001986A7C00E94D114882309F4A2C08985EB
:10106000815087FD81E089879CC00E948D0B86EDB1
:1010700091E00E944B1061E086E00E948D0B888118
:101080008A3024F482E691E00E944B108881082E79
:10109000000C990B0E94EF1480E991E00E944B1024
:1010A00089818A3024F482E691E00E944B10898184
:1010B000082E000C990B0E94EF1461E08DE00E9455
:1010C0008D0B86ED91E00E944B1061E08EE00E9456
:1010D0008D0B8A81082E000C990B0E94EF1487E279
:1010E00092E00E944B1063E084E00E948D0B86ED3D
:1010F00091E00E944B108C81082E000C990B0E94ED
:10110000EF1486ED91E00E944B108D81082E000CAB
:10111000990B0E94EF1486ED91E00E944B108E8196
:10112000082E000C990B0E94EF1486ED91E00E94AE
:101130004B108F81082E000C990B0E94EF1486ED46
:1011400091E00E944B108885082E000C990B0E949C
:10115000EF1486ED91E00E944B108985082E000C5B
:10116000990B0E94EF146EE78BE093E00E946813E6
:101170008B81082E000C990B0E94EF140E94E01442
:10118000882331F08B818F5F823054F01B8209C03D
:101190000E94D114882329F08B81815087FD81E042
:1011A0008B83DF91CF911F910F91FF90EF90DF9094
:1011B000CF900895082E000C990BAA0BBB0BFC01D5
:1011C0003197E730F105D0F4E35BFF4F0C94242115
:1011D0008FE292E011C086E392E00EC08DE392E0D0
:1011E0000BC084E492E008C08BE492E005C082E585
:1011F00092E002C089E592E00C944B1008950F93A1
:101200001F93CF93DF9303E211E0C0E0D0E0F80139
:1012100061918F01CE010A960E941F022296C4316D
:10122000D105A9F709E111E0C0E0D0E0F801619132
:101230008F01CE014E960E941F022296C431D10525
:10124000A9F70FE011E0C0E0D0E0F80161918F0153
:10125000CE01C2960E941F022296C431D105A9F781
:1012600005E011E0C0E0D0E0F80161918F01CE010E
:101270008A5B9F4F0E941F022296C431D105A1F7BD
:1012800060919D0288EC90E0DF91CF911F910F91CA
:101290000C941F02CF93C82F88E60E946F0B86E044
:1012A00090E00E946A0B8C2F6AE00E94F620692F62
:1012B00020E1829F600D11248FEF92E00E94EC01EB
:1012C000CF910C940D0BCF93C82F88E60E946F0B23
:1012D00085E090E00E946A0B8C2F6AE00E94F62065
:1012E000692F20E1829F600D11248FEF92E00E9410
:1012F000EC01CF910C940D0BCF93C82F88E60E9480
:101300006F0B84E090E00E946A0B8C2F6AE00E94D1
:10131000F620692F20E1829F600D11248FEF92E06B
:101320000E94EC01CF910C940D0BCF93C82F88E64F
:101330000E946F0B83E090E00E946A0B8C2F6AE0A2
:101340000E94F620692F20E1829F600D11248FEF0B
:1013500092E00E94EC01CF910C940D0BCF93C82F1B
:1013600088E60E946F0B82E090E00E946A0B8C2F4F
:101370006AE00E94F620692F20E1829F600D11240F
:101380008FEF92E00E94EC01CF910C940D0BCF9364
:10139000C82F88E60E946F0B81E090E00E946A0BE4
:1013A0008C2F6AE00E94F620692F20E1829F600D59
:1013B00011248FEF92E00E94EC01CF910C940D0B61
:1013C000CF92DF92EF92FF9280915B030E94A01177
:1013D00021E0892B09F020E080914C0320FB80F96B
:1013E00080934C030E946F12C0905103D09052031F
:1013F000E0905303F09054039B01AC012C193D097C
:101400004E095F0969017A0180914C0380FF1FC07A
:1014100082FD1DC031E5C316D104E104F104B8F02A
:101420008460877F80934C030E946F126093510306
:1014300070935203809353039093540380914C0311
:101440008062806880934C03C12CD12C76018091FE
:101450004C0380FD27C082FF25C041E5C416D1049E
:10146000E104F104F8F083FD06C081FD04C0877F2C
:10147000806480934C0380914C038B7F80934C035A
:101480000E946F1260935103709352038093530331
:101490009093540380914C038D7F80934C03C12C17
:1014A000D12C760180914C0382FF20C05DEBC516E4
:1014B00052E0D506E104F104C8F083FD17C080FFB7
:1014C00004C0826080934C0311C08B7F8D7F80931A
:1014D0004C030E946F1260935103709352038093E8
:1014E000530390935403C12CD12C7601809159035E
:1014F0000E94A01180934E0380915A030E94A01174
:1015000020914E03880F991F820F911D982F809371
:101510004E0380914F03981709F47AC022E0C21657
:10152000D104E104F10408F473C010925003933025
:1015300051F4823011F481E003C0813071F482E013
:10154000809350030AC0911108C090914D0393FD00
:1015500004C0813081F3823091F38091500388235D
:1015600009F443C080914C03806180934C030E9436
:101570006F12C0905503D0905603E0905703F0903F
:101580005803AB01BC014C195D096E097F098091BC
:101590004B03082E000C990BAA0BBB0B48175907DD
:1015A0006A077B0778F480915003813021F48091A1
:1015B0004D03826005C0823029F480914D03816023
:1015C00080934D030E946F126093550370935603EE
:1015D000809357039093580380914C0380FF05C07C
:1015E000809150038E5F8093500380914E038093CF
:1015F0004F0380914C03886080934C030E946F12CC
:101600006093510370935203809353039093540358
:10161000FF90EF90DF90CF9008952091FE0290917F
:101620005C03213208F04AC08091DB028111FCCFBB
:1016300032E03093DB0231E03093DA023FEF309357
:10164000D9021092D8022093D702AEEDB2E047EB58
:1016500052E0FA013E2F341B321718F43D913193BA
:10166000F9CF1092B6022091B602990F922B909367
:10167000B6029091B502913061F41092B50290914A
:10168000B6029093BB009091BC0093FDF8CF95EC0F
:1016900001C095EE9093BC009091DB029230E1F393
:1016A0009091D9029F3F79F08091D902803241F028
:1016B0008091D902803331F084E005C081E003C01D
:1016C00082E001C083E01092DD021092FE021092CF
:1016D000DC020895682F8FEF92E00C94EC0191E00A
:1016E0009093DC0280935C031092DD021092FE0264
:1016F0000895009769F0FC0101900020E9F7319707
:10170000AF01481B590BBC018BE093E00C94CE1049
:1017100080E090E008950C94790BCF93DF93CDB7E0
:10172000DEB728970FB6F894DEBF0FBECDBF80930B
:10173000190360931A0328E0E3E3F1E0DE01119658
:1017400001900D922A95E1F720911303261710F4CA
:101750006FEF620FFE013196E60FF11DE60FF11DEE
:101760009081682F690F606840E08BE093E02896D5
:101770000FB6F894DEBF0FBECDBFDF91CF910C94B2
:101780004713CF92DF92EF92FF920F931F93CF9365
:10179000DF93FB0120812F3F09F053C08B017C01B7
:1017A000D0901903C0901A03209117032770F8E016
:1017B0002F9F90011124622F606440E08BE093E042
:1017C0000E944713E70188E0E80EF11C69918BE065
:1017D00093E00E946813CE15DF05C1F76C2D8D2DA7
:1017E0000E948D0B609117038BE093E00E946813B9
:1017F00080911703F801808380911703909118035B
:101800000196883091056CF4909318038093170328
:10181000DF91CF911F910F91FF90EF90DF90CF90CC
:10182000089510921803109217038BE093E0DF9154
:10183000CF911F910F91FF90EF90DF90CF900C947C
:101840006E13622F8BE093E0DF91CF911F910F9188
:10185000FF90EF90DF90CF900C946813CF93DF93BD
:10186000CDB7DEB728970FB6F894DEBF0FBECDBF59
:101870008F3224E0920709F49CC20CF0E1C08E3153
:1018800024E0920709F4D0C30CF066C0853124E04F
:10189000920709F4C0C384F5813124E0920709F46A
:1018A000B2C1A4F4813024E0920709F4B4C38031BA
:1018B00024E0920709F4A9C3803B910509F0D7C33E
:1018C0006FED8BE093E00E946813DCC3833124E06A
:1018D000920709F4A7C10CF49BC328E030E048E06C
:1018E00052E0052E000C660B770BCE0101960E948C
:1018F0008D156DE173E0A4C1893124E0920709F4EC
:10190000C2C1B4F4873124E0920709F49EC10CF0FF
:10191000ABC128E030E040E052E0052E000C660B41
:10192000770BCE0101960E948D156EE173E088C1A0
:101930008B3124E0920709F4B5C10CF46FC38C31EC
:1019400024E0920709F46DC38D3124E0920709F079
:101950008EC38AE692E088C3863224E0920709F4B7
:10196000BFC194F5823224E0920709F466C3B4F44F
:10197000803224E0920709F45AC30CF05BC328E0DC
:1019800030E048ED51E0052E000C660B770BCE01E0
:1019900001960E948D1563E273E052C1843224E007
:1019A000920709F48EC10CF04BC328E030E040ED03
:1019B00051E0052E000C660B770BCE0101960E94BC
:1019C0008D1564E273E03CC18A3224E0920709F489
:1019D000B4C1B4F4883224E0920709F490C10CF049
:1019E0009DC128E030E048EB51E0052E000C660B6D
:1019F000770BCE0101960E948D1567E273E020C13E
:101A00008C3224E0920709F4B6C10CF4A5C18D32E2
:101A100024E0920709F4BEC18E3224E0920709F057
:101A200026C328E030E040E851E0052E000C660BAC
:101A3000770BCE0101960E948D156EE273E000C116
:101A4000803424E0920709F407C30CF074C0873394
:101A500024E0920709F4E9C194F5833324E0920766
:101A600009F4C5C1B4F4813324E0920709F4B0C18C
:101A70000CF4E9C228E030E048E651E0052E000C05
:101A8000660B770BCE0101960E948D1561E373E022
:101A9000D7C0853324E0920709F4D8C20CF0B6C150
:101AA00028E030E048E551E0052E000C660B770B8E
:101AB000CE0101960E948D1563E373E0C1C08B33A4
:101AC00024E0920709F4DEC1B4F4893324E09207DC
:101AD00009F4BAC10CF0C7C128E030E048E351E096
:101AE000052E000C660B770BCE0101960E948D151A
:101AF00067E373E0A5C08D3324E0920709F4E0C1E9
:101B00000CF4CFC18E3324E0920709F4A2C28F33C4
:101B100024E0920709F0ABC228E030E048E051E051
:101B2000052E000C660B770BCE0101960E948D15D9
:101B30006DE373E085C0883424E0920709F4FCC1AA
:101B400034F5843424E0920709F4D8C154F4823483
:101B500024E0920709F4C3C10CF081C286E792E049
:101B600083C2863424E0920709F4D7C10CF47AC208
:101B700028E030E048EE50E0052E000C660B770BB5
:101B8000CE0101960E948D1562E473E059C08C3439
:101B900024E0920709F4FDC1B4F48A3424E09207EA
:101BA00009F4D9C10CF0E6C128E030E048ED50E07E
:101BB000052E000C660B770BCE0101960E948D1549
:101BC00064E473E03DC08E3424E0920709F4FFC161
:101BD0000CF4EEC18F3424E0920709F407C281357A
:101BE00024E0920709F043C228E030E040E551E0EC
:101BF000052E000C660B770BCE0101960E948D1509
:101C000064E373E01DC028E030E048E152E0052EB7
:101C1000000C660B770BCE0101960E948D156BE1CF
:101C200073E00EC028E030E040E152E0052E000CE9
:101C3000660B770BCE0101960E948D156CE173E067
:101C4000CE0101960E94C10B1DC228E030E048EF92
:101C500051E0052E000C660B770BCE0101960E9419
:101C60008D156FE173E0ECCF28E030E040EF51E0FC
:101C7000052E000C660B770BCE0101960E948D1588
:101C800060E273E0DDCF28E030E048EE51E0052E61
:101C9000000C660B770BCE0101960E948D1561E258
:101CA00073E0CECF28E030E040EE51E0052E000C8E
:101CB000660B770BCE0101960E948D1562E273E0F0
:101CC000BFCF28E030E048EC51E0052E000C660B59
:101CD000770BCE0101960E948D1565E273E0B0CFBF
:101CE00028E030E040EC51E0052E000C660B770B4D
:101CF000CE0101960E948D1566E273E0A1CF28E027
:101D000030E040EB51E0052E000C660B770BCE0166
:101D100001960E948D1568E273E092CF28E030E0D2
:101D200048EA51E0052E000C660B770BCE010196B8
:101D30000E948D1569E273E083CF28E030E040EA2D
:101D400051E0052E000C660B770BCE0101960E9428
:101D50008D156AE273E074CF28E030E048E951E085
:101D6000052E000C660B770BCE0101960E948D1597
:101D70006BE273E065CF28E030E040E951E0052EEA
:101D8000000C660B770BCE0101960E948D156CE25C
:101D900073E056CF28E030E048E851E0052E000C13
:101DA000660B770BCE0101960E948D156DE273E0F4
:101DB00047CF28E030E048E751E0052E000C660BE5
:101DC000770BCE0101960E948D156FE273E038CF3C
:101DD00028E030E040E751E0052E000C660B770B61
:101DE000CE0101960E948D1560E373E029CF28E0B3
:101DF00030E040E651E0052E000C660B770BCE017B
:101E000001960E948D1562E373E01ACF28E030E05E
:101E100048E451E0052E000C660B770BCE010196CD
:101E20000E948D1565E373E00BCF28E030E040E4BD
:101E300051E0052E000C660B770BCE0101960E9437
:101E40008D1566E373E0FCCE28E030E040E351E01E
:101E5000052E000C660B770BCE0101960E948D15A6
:101E600068E373E0EDCE28E030E048E251E0052E73
:101E7000000C660B770BCE0101960E948D1569E36D
:101E800073E0DECE28E030E040E251E0052E000CA9
:101E9000660B770BCE0101960E948D156AE373E005
:101EA000CFCE28E030E048E151E0052E000C660B73
:101EB000770BCE0101960E948D156BE373E0C0CEC7
:101EC00028E030E040E151E0052E000C660B770B76
:101ED000CE0101960E948D156CE373E0B1CE28E02F
:101EE00030E040E051E0052E000C660B770BCE0190
:101EF00001960E948D156EE373E0A2CE28E030E0DB
:101F000048EF50E0052E000C660B770BCE010196D2
:101F10000E948D1560E473E093CE28E030E040EF3E
:101F200050E0052E000C660B770BCE0101960E9447
:101F30008D1561E473E084CE28E030E040EE50E09F
:101F4000052E000C660B770BCE0101960E948D15B5
:101F500063E473E075CE28E030E040ED50E0052EFC
:101F6000000C660B770BCE0101960E948D1565E47F
:101F700073E066CE28E030E048EC50E0052E000C1F
:101F8000660B770BCE0101960E948D1566E473E017
:101F900057CE28E030E040EC50E0052E000C660BF8
:101FA000770BCE0101960E948D1567E473E048CE51
:101FB00028E030E048EB50E0052E000C660B770B74
:101FC000CE0101960E948D1568E473E039CE28E0B9
:101FD00030E040EB50E0052E000C660B770BCE0195
:101FE00001960E948D1569E473E02ACE28E030E066
:101FF00048EA50E0052E000C660B770BCE010196E7
:102000000E948D156AE473E01BCE80E692E02CC03E
:1020100082E692E029C084E692E026C086E692E05D
:1020200023C088E692E020C08CEC91E01DC08CE6D5
:1020300091E01AC08CE692E017C08EE692E014C0E0
:1020400080E792E011C085E691E00EC08FE691E056
:102050000BC082E792E008C084E792E005C088E701
:1020600092E002C08AE792E00E948B0B0BC0E091E5
:102070000B03F0910C030190F081E02D682F8BE0B1
:1020800093E0099528960FB6F894DEBF0FBECDBF3A
:10209000DF91CF910895EF92FF920F931F93CF930B
:1020A000DF937C01EC0109900020E9F72197C81B20
:1020B000D90B00E010E00C171D076CF5F701E00FDD
:1020C000F11F3081432F032E000C550BCA01807C79
:1020D0009927803C910599F4918197FF10C0432F77
:1020E0004F71292F2F73022E000C330BC90160E4AE
:1020F000469F800D911D1124AC0182E001C081E05A
:10210000080F111DCA010E942E0C809119038F5FC8
:1021100080931903D0CFDF91CF911F910F91FF9042
:10212000EF90089540E061E08BE093E00E94471358
:102130008BE39FE10197F1F78BE093E00C946E1332
:1021400088E08093160360E08BE093E00C94131317
:102150001092B4021092B3021092DD021092FE02AD
:102160001092DB0281E08093DA021092B50261E006
:1021700082E10E94C91161E083E10E94C911E9EB8B
:10218000F0E080818E7F808380818D7F808388E4F2
:102190008093B80085E48093BC000895CF92DF92CD
:1021A000EF92FF920F931F93CF93DF936C017A010D
:1021B0008B01C0E0D0E0CE15DF0589F0D8016D912C
:1021C0008D01D601ED91FC910190F081E02DC601C9
:1021D0000995892B11F47E0102C02196ECCFC7012D
:1021E000DF91CF911F910F91FF90EF90DF90CF90F3
:1021F0000895833081F028F4813099F08230A1F085
:1022000008958730A9F08830B9F08430D1F48091F6
:1022100080008F7D03C0809180008F778093800045
:10222000089584B58F7702C084B58F7D84BD0895ED
:102230008091B0008F7703C08091B0008F7D809334
:10224000B00008953FB7F8948091A9039091AA0334
:10225000A091AB03B091AC0326B5A89B05C02F3F5E
:1022600019F00196A11DB11D3FBFBA2FA92F982FBC
:102270008827820F911DA11DB11DBC01CD0142E037
:10228000660F771F881F991F4A95D1F70895089503
:1022900085ED8093BC008091BC0084FDFCCF109242
:1022A000DB0208950E948E23EF92FF920F931F93FB
:1022B000CF93DF93EC01198218821B821A821D8250
:1022C0001C8261157105A9F17B01FB0101900020C1
:1022D000E9F731978F01061B170BB8016F5F7F4F2E
:1022E00080E090E00E94C422009759F0998388838F
:1022F0001B830A832C813D81232B81F4FC011082F6
:102300000DC088819981009711F00E942C221982BA
:1023100018821D821C821B821A820BC01D830C83B3
:10232000B701DF91CF911F910F91FF90EF900C9427
:102330009C23DF91CF911F910F91FF90EF90089513
:10234000CF93DF93282F30E0F901EA59FD4F8491B4
:10235000F901EE5AFD4FD491F901E25CFD4FC491B1
:10236000CC2391F081110E94F910EC2FF0E0EE0FD8
:10237000FF1FEC5CFD4FA591B491EC91ED2381E042
:1023800090E021F480E002C080E090E0DF91CF9106
:1023900008951F93CF93DF93282F30E0F901EA5976
:1023A000FD4F8491F901EE5AFD4FD491F901E25CA1
:1023B000FD4FC491CC23C9F0162F81110E94F91052
:1023C000EC2FF0E0EE0FFF1FE65DFD4FA591B491FD
:1023D0008FB7F894111105C09C91ED2FE095E9237A
:1023E00002C0EC91ED2BEC938FBFDF91CF911F9149
:1023F0000895CF93DF9390E0FC01EE5AFD4F2491B6
:10240000FC01E25CFD4F8491882361F190E0880F2C
:10241000991FFC01E05EFD4FC591D491FC01E65D82
:10242000FD4FA591B491611109C09FB7F8948881BF
:10243000209582238883EC912E230BC0623061F4B7
:102440009FB7F8943881822F809583238883EC91FD
:102450002E2B2C939FBF06C08FB7F894E8812E2BAC
:1024600028838FBFDF91CF9108958F929F92AF9273
:10247000BF92CF92DF92EF92FF926B017C010E949C
:1024800022114B015C01C114D104E104F104F1F00B
:102490000E942211DC01CB0188199909AA09BB0904
:1024A000883E9340A105B10570F321E0C21AD1081E
:1024B000E108F10888EE880E83E0981EA11CB11C8B
:1024C000C114D104E104F10419F7DDCFFF90EF90BE
:1024D000DF90CF90BF90AF909F908F9008952FB7CF
:1024E000F8946091A5037091A6038091A703909141
:1024F000A8032FBF08951F920F920FB60F921124B9
:102500002F933F938F939F93AF93BF938091A50396
:102510009091A603A091A703B091A8033091A403C2
:1025200023E0230F2D3720F40196A11DB11D05C016
:1025300026E8230F0296A11DB11D2093A4038093CA
:10254000A5039093A603A093A703B093A80380913B
:10255000A9039091AA03A091AB03B091AC0301969B
:10256000A11DB11D8093A9039093AA03A093AB036F
:10257000B093AC03BF91AF919F918F913F912F91F9
:102580000F900FBE0F901F9018951F920F920FB6CD
:102590000F9211242F933F934F935F936F937F93E9
:1025A0008F939F93AF93BF93EF93FF93E0910201BB
:1025B000F09103010995FF91EF91BF91AF919F9128
:1025C0008F917F916F915F914F913F912F910F90DC
:1025D0000FBE0F901F9018951F920F920FB60F927B
:1025E00011242F933F934F935F936F937F938F9318
:1025F0009F93AF93BF93EF93FF93E0910001F0910E
:1026000001010995FF91EF91BF91AF919F918F913A
:102610007F916F915F914F913F912F910F900FBEDE
:102620000F901F9018950F931F93CF93DF931F92D6
:10263000CDB7DEB78C01FC01848169830E946F0BEA
:10264000F80183856981862B90E00E946A0B0F90C8
:10265000DF91CF911F910F910C940D0B0F931F934E
:10266000CF938C01C62F0E9413136C2F6460C80196
:102670000E9413136C2F6B7FC8010E94131383EC0D
:1026800090E00197F1F7CF911F910F910895FF927C
:102690000F931F93CF93DF931F92CDB7DEB78C01BB
:1026A000F62E962F907F692F642BC80149830E94D4
:1026B0002E1380E1F89EB00111244981642BC801DA
:1026C0000F90DF91CF911F910F91FF900C942E13DB
:1026D00041E00E94471381E090E00895FC011586D7
:1026E00014868FEF808B818B828B838B848B858B81
:1026F000868B878B808F818F828F838F848F858F4E
:10270000868F878F80A381A382A383A384A385A3BD
:1027100086A387A380A781A782A783A784A785A76D
:1027200086A787A780AB81AB82AB83AB84AB85AB3D
:1027300086AB87AB80AF81AF82AF83AF84AF85AF0D
:1027400086AF87AF08951F920F920FB60F92112494
:102750002F933F934F935F936F937F938F939F93A9
:10276000AF93BF93EF93FF938091B900887F80363A
:1027700009F49CC068F5883209F45BC090F480319C
:1027800009F454C038F4882309F4F6C0883009F4F9
:102790004DC0F6C0883109F44CC0803209F45DC0E8
:1027A000EFC0803409F468C048F4803309F455C0A0
:1027B000883309F0E5C08093D902D8C0803509F488
:1027C0004FC0883509F45DC0883409F0D9C0D6C03F
:1027D000883909F4C7C0A8F4883709F467C038F409
:1027E000883609F463C0803709F460C0C9C08838EE
:1027F00009F4B8C0803909F45FC0803809F0C0C05E
:102800005BC0803B09F486C038F4803A09F466C0A6
:10281000883A09F47FC0B4C0803C09F4A7C0883C62
:1028200009F4A4C0883B09F48AC0AAC08091B6020A
:1028300010C09091D8028091D702981770F5E0915E
:10284000D80281E08E0F8093D802F0E0E954FD4F6A
:1028500080818093BB0085EC86C08093D9028EC0B6
:10286000E091D80281E08E0F8093D8028091BB0066
:10287000F0E0E954FD4F80839091D8028091D70217
:102880006EC0E091D80281E08E0F8093D8028091D3
:10289000BB00F0E0E954FD4F80838091DA028111A2
:1028A0006DC081E08093B50284EA61C083E08093CB
:1028B000DB021092A303CFCF8091A303803208F0F4
:1028C00051C0E091A30381E08E0F8093A303809118
:1028D000BB00F0E0ED57FC4F8083BDCF85EC8093CB
:1028E000BC001092DB028091A303803230F4E091AF
:1028F000A303F0E0ED57FC4F10826091A30370E05A
:10290000E0918103F091820383E893E009951092AE
:10291000A30336C084E08093DB0210928003109200
:102920007D03E0917E03F0917F03099580917D0303
:10293000811105C081E080937D0310925D03E091D9
:10294000800381E08E0F80938003F0E0E35AFC4F18
:1029500080818093BB009091800380917D039817C4
:1029600008F479CF85E88093BC000AC085EC809399
:10297000BC001092DB0204C01092D9020E944811E0
:10298000FF91EF91BF91AF919F918F917F916F9147
:102990005F914F913F912F910F900FBE0F901F901D
:1029A000189580914D0382FD0E94E00980915003AB
:1029B000833021F41092500381E0089580E008955F
:1029C00080914D0382FD0E94E00980915003843084
:1029D00021F41092500381E0089580E008958F92D1
:1029E0009F92AF92BF92CF92DF92EF92FF920F939E
:1029F0001F93CF93DF93CDB7DEB7A1970FB6F894AF
:102A0000DEBF0FBECDBF6C01990FEE08FF08F7FEC9
:102A100031C0E0910B03F0910C030190F081E02DA7
:102A20006DE28BE093E009958C0122273327A90101
:102A30002C193D094E095F0919A2CE0181967C012E
:102A40009AE0892E912CA12CB12CCA01B901A501C3
:102A500094010E940221605DF70162937F012115BC
:102A600031054105510589F7CF010E94790B800F8F
:102A7000911F1DC0A701960119A28E010F5D1F4F66
:102A80008AE0C82ED12CE12CF12CCA01B901A70192
:102A900096010E940221605DF80162938F01211569
:102AA00031054105510589F7CF010E94790B20912D
:102AB0001903820F911D80931903A1960FB6F89404
:102AC000DEBF0FBECDBFDF91CF911F910F91FF9061
:102AD000EF90DF90CF90BF90AF909F908F90089530
:102AE00080914D0382FD0E94E00980915003813066
:102AF00019F410925003089580E0089580914D03D9
:102B000082FD0E94E00980915003823021F41092EE
:102B1000500381E0089580E00895FA01DC0102C0CD
:102B200005900D9221503040D8F70895CF93DF9350
:102B3000CDB7DEB729970FB6F894DEBF0FBECDBF75
:102B4000789484B5826084BD84B5816084BD85B588
:102B5000826085BD85B5816085BD80916E00816094
:102B600080936E001092810080918100826080933A
:102B7000810080918100816080938100809180003C
:102B80008160809380008091B10084608093B10067
:102B90008091B00081608093B00080917A00846061
:102BA00080937A0080917A00826080937A0080918D
:102BB0007A00816080937A0080917A0080688093A7
:102BC0007A001092C10080914D03886080934D037C
:102BD0008091590390915A039093590380935A031B
:102BE0008DE192E090930101809300018091690052
:102BF0008C7F816080936900E89A8BE192E09093EA
:102C000003018093020180916900837F8460809337
:102C10006900E99A61E085E00E94F91161E086E0CF
:102C20000E94F91161E08AE00E94F91161E084E0FC
:102C30000E94F9110E94A8100E94A8100E94A810DA
:102C40001092100380911503823018F098E0909351
:102C500010038093130362E370E080E090E00E9431
:102C60003512609116038BE093E00E94131368EE17
:102C700073E080E090E00E94351260E38BE093E027
:102C80000E942E130BE416E4C8010197F1F760E3EC
:102C90008BE093E00E942E13C8010197F1F760E3E7
:102CA0008BE093E00E942E1383E592E00197F1F709
:102CB00060E28BE093E00E942E136091100360624B
:102CC00040E08BE093E00E94471384E0809311037F
:102CD00040E06CE08BE093E00E94471340E061E04D
:102CE0008BE093E00E9447130BE31FE1C8010197BB
:102CF000F1F782E08093120340E066E08BE093E01E
:102D00000E94471340E062E08BE093E00E9447138B
:102D1000C8010197F1F70E94A0100E94921080E074
:102D20000E94A011892B09F075C067E08AE090E04D
:102D30000E941F026AE08CE090E00E941F0265E0A2
:102D40008EE090E00E941F0200E110E060E0C80108
:102D50000E941F020E5F1F4F0E311105B9F768E088
:102D60008EE190E00E941F026EE180E290E00E94FE
:102D70001F026AE082E290E00E941F0204E210E07B
:102D800060E0C8010E941F020E5F1F4F0233110551
:102D9000B9F769E082E390E00E941F026DE284E3EC
:102DA00090E00E941F026FE086E390E00E941F0205
:102DB00008E310E060E0C8010E941F020E5F1F4F91
:102DC00006341105B9F76AE086E490E00E941F021C
:102DD00067E388E490E00E941F0264E18AE490E0E7
:102DE0000E941F020CE410E060E0C8010E941F0274
:102DF0000E5F1F4F0A351105B9F761E088EC90E0CE
:102E00000E941F0260E080E00E948D0B83E591E04C
:102E10000E944B1080E00E94A011892BD9F30E94E0
:102E2000921033E2E32E31E0F32E00E010E0C8010F
:102E30000A960E942102F70181937F010E5F1F4FC6
:102E400004311105A1F729E1E22E21E0F22E00E084
:102E500010E0C8014E960E942102F70181937F0184
:102E60000E5F1F4F04311105A1F79FE0E92E91E09D
:102E7000F92E00E010E0C801C2960E942102F7017D
:102E800081937F010E5F1F4F04311105A1F785E08B
:102E9000E82E81E0F82E00E010E0C8018A5B9F4F29
:102EA0000E942102F70181937F010E5F1F4F0431C1
:102EB000110599F788EC90E00E94210290E0909330
:102EC0009E0280939D02ACE7CA2EA2E0DA2EB0E00B
:102ED000AB2EB0E0BB2E11E044244A9402E0802ED9
:102EE000912C55EEF52E65ECE62E77E0772EE4E199
:102EF0006E2EFFE15F2E88E60E946F0B80E090E06F
:102F00000E946A0B0E940D0B8091DB028111FCCFA5
:102F10001093DB021093DA024092D9021092D80289
:102F2000F6E0F093D7021093B6028091B602806D5E
:102F30008093B6028091B502813069F41092B50297
:102F40008091B6028093BB008091BC0083FDF8CFD6
:102F5000E092BC0002C0F092BC008091DB028130A4
:102F6000E1F38091D802873018F48091D80201C033
:102F700087E0A7EBB2E0ECE7F2E09E2F9C199817F0
:102F800018F49D919193F9CF1092B4028093B302FB
:102F9000882309F48DC08FEF92E00E94A001582F82
:102FA0008FEF92E059870E94A001282E8FEF92E0C8
:102FB0000E94A001382F8FEF92E038870E94A00175
:102FC000382E8FEF92E00E94A001282F8FEF92E021
:102FD0002F830E94A001082F8FEF92E00E94A00192
:102FE000982F5985652F052E000C770B607F77276A
:102FF00084E0759567958A95E1F75F704AE0649F74
:10300000500D11245093A602622D022C000C770B58
:10301000607F772724E0759567952A95E1F7822DE3
:103020008F70282EEAE06E9F200C11242092A702B8
:103030003885832F8073869586958695582F550FF2
:10304000550F850F3F70380F3093B202432D4770F4
:103050004093A8022F81822F80738695869586954E
:10306000382F330F330F830F2F70280F2093A102B7
:1030700004FB882780F9880F282F220F220F280FA2
:10308000802F8F70322E380E3092A002292F092EF9
:10309000000C330B207F332744E0359527954A9564
:1030A000E1F79F70FAE02F9F900D112490939F02FB
:1030B0000E94E00980914D0382FD0E94E009809109
:1030C0004C0385FF02C08F7D0AC080914D0382FDB5
:1030D0000E94E00980914C0384FF15C08F7E80938D
:1030E0004C031092A2021092A3021092A40210921A
:1030F000A5021093B1021092AD021092AE0210928E
:10310000AF021092B002809104018130B1F020E052
:1031100030E040E85FE36091A2027091A3028091E9
:10312000A4029091A5020E942B216093A2027093A9
:10313000A3028093A4029093A50220E030E048E42B
:1031400053E46091A2027091A3028091A402909135
:10315000A5020E94A323811110C00E949210109218
:10316000A2021092A3021092A4021092A502109340
:10317000040110929C020E94FF0880914D0382FD81
:103180000E94E00980914C0386FF13C08F7B8093DF
:103190004C0310929C020E94FF080E9492108091A2
:1031A0000401893024F48F5F8093040102C01093DE
:1031B0000401E09104018E2FEE0F990BAA0BBB0BBB
:1031C000FC013197E830F10508F0CDC6EC5CFF4F0B
:1031D0000C94242160E080E00E948D0B8091B2026B
:1031E0008A3024F482E691E00E944B108091B20272
:1031F000082E000C990B0E94EF1480E991E00E94C8
:103200004B108091A7028A3024F482E691E00E945C
:103210004B108091A702082E000C990B0E94EF140E
:1032200061E081E00E948D0B8091A6028A3024F437
:1032300082E691E00E944B108091A602082E000CBD
:10324000990B0E94EF1463E081E00E948D0B809146
:10325000A8020E94DA08E091A8020E2E000CFF0BD3
:10326000ED5DFE4F8281813021F59091B202809117
:103270002301981316C09091A702809124019813FE
:1032800010C09091A60280912501891754F060E04A
:1032900086E00E948D0B6EE78BE093E00E9468133E
:1032A00008C060E086E00E948D0B86ED91E00E94F0
:1032B0004B10E091A8020E2E000CFF0BE75EFE4FB4
:1032C0008281813021F59091B20280911901981389
:1032D00016C09091A70280911A01981310C0909186
:1032E000A60280911B01891754F061E086E00E94DC
:1032F0008D0B6EE78BE093E00E94681308C061E0DD
:1033000086E00E948D0B86ED91E00E944B10E091CB
:10331000A8020E2E000CFF0BE15FFE4F8281813070
:1033200021F59091B20280910F01981316C09091EF
:10333000A70280911001981310C09091A60280916D
:103340001101891754F062E086E00E948D0B6EE750
:103350008BE093E00E94681308C062E086E00E9460
:103360008D0B86ED91E00E944B10E091A8020E2E8D
:10337000000CFF0BEB5FFE4F8281813021F59091B5
:10338000B20280910501981316C09091A702809116
:103390000601981310C09091A60280910701891729
:1033A00054F063E086E00E948D0B6EE78BE093E0C3
:1033B0000E94681308C063E086E00E948D0B86EDD2
:1033C00091E00E944B1060E087E00E948D0B84E644
:1033D00091E00E944B1060E08AE00E948D0B80918A
:1033E00023018A3024F482E691E00E944B10809100
:1033F0002301082E000C990B0E94EF1480E991E044
:103400000E944B10809124018A3024F482E691E0DE
:103410000E944B1080912401082E000C990B0E94F1
:10342000EF1487E691E00E944B1080912501082E51
:10343000000C990B0E94EF1461E087E00E948D0B55
:103440008BE691E00E944B1061E08AE00E948D0BB8
:10345000809119018A3024F482E691E00E944B1099
:1034600080911901082E000C990B0E94EF1480E93D
:1034700091E00E944B1080911A018A3024F482E678
:1034800091E00E944B1080911A01082E000C990BBC
:103490000E94EF1487E691E00E944B1080911B017F
:1034A000082E000C990B0E94EF1462E087E00E9446
:1034B0008D0B8EE691E00E944B1062E08AE00E9444
:1034C0008D0B80910F018A3024F482E691E00E94F6
:1034D0004B1080910F01082E000C990B0E94EF14E5
:1034E00080E991E00E944B10809110018A3024F411
:1034F00082E691E00E944B1080911001082E000C92
:10350000990B0E94EF1487E691E00E944B10809186
:103510001101082E000C990B0E94EF1463E087E064
:103520000E948D0B81E791E00E944B1063E08AE0DE
:103530000E948D0B809105018A3024F482E691E08F
:103540000E944B1080910501082E000C990B0E94DF
:10355000EF1480E991E00E944B10809106018A30BF
:1035600024F482E691E00E944B1080910601082E1F
:10357000000C990B0E94EF1487E691E00E944B101B
:1035800080910701082E000C990B0E94EF14EBC4E8
:1035900060E087E00E948D0B84E791E00E944B1071
:1035A00060E080E00E948D0B8091B2028A3024F4AA
:1035B00082E691E00E944B108091B202082E000C2E
:1035C000990B0E94EF1480E991E00E944B108091CA
:1035D000A7028A3024F482E691E00E944B10809189
:1035E000A702082E000C990B0E94EF1461E081E005
:1035F0000E948D0B8091A6028A3024F482E691E02D
:103600000E944B108091A602082E000C990B0E947C
:10361000EF1463E081E00E948D0B86E891E00E9448
:103620004B1063E088E00E948D0B0E947E1588237A
:1036300041F080919C028F5F843064F010929C0274
:103640000BC00E947015882339F080919C02815034
:1036500087FD83E080939C0200919C02013009F475
:1036600054C01CF4002341F07EC4023009F496C01B
:10367000033009F4DCC077C46EE78BE093E00E946E
:1036800068138091A902082E000C990B0E94EF1478
:1036900086ED91E00E944B108091AA02082E000C4A
:1036A000990B0E94EF1486ED91E00E944B108091DF
:1036B000AB02082E000C990B0E94EF1486ED91E0EE
:1036C0000E944B108091AC02082E000C990B0E94B6
:1036D000EF140E94E014882341F08091A9028F5FCB
:1036E00082306CF01092A9023EC40E94D11488234B
:1036F00009F439C48091A902815087FD03C08093E9
:10370000A90231C41093A9022EC486ED91E00E9453
:103710004B108091A902082E000C990B0E94EF1407
:103720006EE78BE093E00E9468138091AA02082E56
:10373000000C990B0E94EF1486ED91E00E944B1053
:103740008091AB02082E000C990B0E94EF1486EDBD
:1037500091E00E944B108091AC02082E000C990B56
:103760000E94EF140E94E014882341F08091AA0285
:103770008F5F82306CF01092AA02F5C30E94D114C0
:10378000882309F4F0C38091AA02815087FD03C009
:103790008093AA02E8C30093AA02E5C386ED91E0F4
:1037A0000E944B108091A902082E000C990B0E94D8
:1037B000EF1486ED91E00E944B108091AA02082E32
:1037C000000C990B0E94EF146EE78BE093E00E94CF
:1037D00068138091AB02082E000C990B0E94EF1425
:1037E00086ED91E00E944B108091AC02082E000CF7
:1037F000990B0E94EF140E94E014882341F08091FD
:10380000AB028F5F82306CF01092AB02ACC30E94AF
:10381000D114882309F4A7C38091AB02815087FD9E
:1038200003C08093AB029FC31093AB029CC386ED91
:1038300091E00E944B108091A902082E000C990B78
:103840000E94EF1486ED91E00E944B108091AA0235
:10385000082E000C990B0E94EF1486ED91E00E9457
:103860004B108091AB02082E000C990B0E94EF14B4
:103870006EE78BE093E00E9468138091AC02082E03
:10388000000C990B0E94EF140E94E014882341F071
:103890008091AC028F5F82306CF01092AC0263C3F7
:1038A0000E94D114882309F45EC38091AC02815038
:1038B00087FD03C08093AC0256C31093AC0253C380
:1038C00062E971E0CE0101960E945411BE016F5F62
:1038D0007F4F83E291E023C06AE971E0CE01019657
:1038E0000E945411BE016F5F7F4F89E191E017C0C4
:1038F00062EA71E0CE0101960E945411BE016F5F31
:103900007F4F8FE091E00BC06BEA71E0CE01019632
:103910000E945411BE016F5F7F4F85E091E00E94CD
:10392000230289819A810E942C221DC360E080E0DD
:103930000E948D0B83EB91E00E944B1060E08AE0C7
:103940000E948D0B8091B2028A3024F482E691E0CD
:103950000E944B108091B202082E000C990B0E941D
:10396000EF1460E08DE00E948D0B8091A7028A30F9
:1039700024F482E691E00E944B108091A702082E69
:10398000000C990B0E94EF1461E080E00E948D0B07
:103990008DEB91E00E944B1061E086E00E948D0B60
:1039A0008091A1028A3024F482E691E00E944B10BB
:1039B0008091A102082E000C990B0E94EF1461E087
:1039C00089E00E948D0B8091A0028A3024F482E667
:1039D00091E00E944B108091A002082E000C990BE0
:1039E0000E94EF1461E08CE00E948D0B80919F0299
:1039F000082E000C990B0E94EF1461E08FE00E94EA
:103A00008D0B8091A8020E94DA0862E080E00E949B
:103A10008D0B84EC91E00E944B1062E085E00E94E7
:103A20008D0B80919D0290919E028130910541F015
:103A30008230910541F0892B51F489EC91E005C069
:103A40008EEC91E002C083ED91E00E944B100E9449
:103A50007E15882341F080919C028F5F873064F04F
:103A600010929C020FC00E947015882359F080911B
:103A70009C02815087FD03C080939C0203C046E0F6
:103A800040939C02E0919C028E2FEE0F990BAA0BA3
:103A9000BB0B8730910508F066C2FC01E45CFF4F68
:103AA00060E089E00C9424210E948D0B6EE78BE08E
:103AB00093E00E94681360E08CE00E948D0B80E927
:103AC00091E00E944B1061E085E00E948D0B86ED35
:103AD00091E00E944B1061E088E00E948D0B88ED20
:103AE00091E00E944B1061E08BE00E948D0B88ED0D
:103AF00091E00E944B1062E084E00E948D0B86ED05
:103B000091E00E944B100E94E014882341F08091C4
:103B1000B2028F5F883184F01092B2020FC00E940F
:103B2000D114882309F41FC28091B202815080937E
:103B3000B20287FF03C087E18093B2028091B20294
:103B40000E94AE0910C20E948D0B86ED91E00E948A
:103B50004B1060E08CE00E948D0B6EE78BE093E0F1
:103B60000E94681361E085E00E948D0B86ED91E074
:103B70000E944B1061E088E00E948D0B88ED91E07F
:103B80000E944B1061E08BE00E948D0B88ED91E06C
:103B90000E944B1062E084E00E948D0B86ED91E064
:103BA0000E944B100E94E014882341F08091A702EC
:103BB0008F5F8C3384F01092A7020FC00E94D11443
:103BC000882309F4D0C18091A70281508093A70275
:103BD00087FF03C08BE38093A7028091A7020E9416
:103BE000C709C1C10E948D0B86ED91E00E944B1068
:103BF00060E08CE00E948D0B80E991E00E944B1008
:103C000061E085E00E948D0B6EE78BE093E00E94FF
:103C1000681361E088E00E948D0B88ED91E00E94BE
:103C20004B1061E08BE00E948D0B88ED91E00E94CB
:103C30004B1062E084E00E948D0B86ED91E00E94C3
:103C40004B100E94E014882359F08091A1028F5FED
:103C500080321CF48093A10210C01092A1020DC00A
:103C60000E94D114882309F47EC18091A102815061
:103C70008093A10287FD5092A1028091A1020E942F
:103C80007C0971C10E948D0B86ED91E00E944B1062
:103C900060E08CE00E948D0B80E991E00E944B1067
:103CA00061E085E00E948D0B86ED91E00E944B1053
:103CB00061E088E00E948D0B6EE78BE093E00E944C
:103CC000681361E08BE00E948D0B88ED91E00E940B
:103CD0004B1062E084E00E948D0B86ED91E00E9423
:103CE0004B100E94E014882341F08091A0028F5F66
:103CF0008D3084F01092A0020FC00E94D11488234E
:103D000009F431C18091A00281508093A00287FF05
:103D100003C08CE08093A0028091A0020E946309FE
:103D200022C10E948D0B86ED91E00E944B1060E055
:103D30008CE00E948D0B80E991E00E944B1061E0C5
:103D400085E00E948D0B86ED91E00E944B1061E0B2
:103D500088E00E948D0B88ED91E00E944B1061E09D
:103D60008BE00E948D0B6EE78BE093E00E9468135E
:103D700061E08EE00E948D0B86ED91E00E944B1079
:103D800062E084E00E948D0B86ED91E00E944B1072
:103D90000E94E014882359F080919F028F5F833343
:103DA0001CF480939F0210C010929F020DC00E94CD
:103DB000D114882309F4D7C080919F028150809349
:103DC0009F0287FD60929F0280919F020E944A0994
:103DD000CAC00E948D0B86ED91E00E944B1060E0FE
:103DE0008CE00E948D0B80E991E00E944B1061E015
:103DF00085E00E948D0B86ED91E00E944B1061E002
:103E000088E00E948D0B88ED91E00E944B1061E0EC
:103E10008BE00E948D0B88ED91E00E944B1061E0D9
:103E20008EE00E948D0B6EE78BE093E00E9468139A
:103E300062E084E00E948D0B86ED91E00E944B10C1
:103E40000E94E014882359F08091A8028F5F883087
:103E50001CF48093A80211C01093A8020EC00E9407
:103E6000D114882309F47FC08091A80281508093E7
:103E7000A802181614F07092A8028091A8020E945D
:103E8000950971C00E948D0B86ED91E00E944B1048
:103E900060E08CE00E948D0B80E991E00E944B1065
:103EA00061E085E00E948D0B86ED91E00E944B1051
:103EB00061E088E00E948D0B88ED91E00E944B103C
:103EC00061E08BE00E948D0B88ED91E00E944B1029
:103ED00061E08EE00E948D0B86ED91E00E944B1018
:103EE00062E084E00E948D0B6EE78BE093E00E941D
:103EF00068130E94E014882391F080919D029091B4
:103F00009E020196833091052CF490939E0280933B
:103F10009D0229C010929E0210929D0224C00E9410
:103F2000D114882301F180919D0290919E02019706
:103F300090939E0280939D0297FF15C090929E02DF
:103F400080929D0210C060E080E00E948D0B8AED9F
:103F500091E00E944B1061E080E00E948D0B86EEA4
:103F600091E00E944B108091A902813011F461E030
:103F70001DC0E091A8020E2E000CFF0BED5DFE4F60
:103F80008281813091F49091B20280912301981343
:103F90000CC09091A70280912401981306C09091C3
:103FA000A60280912501891714F760E085E00E9440
:103FB000C9118091AA02813011F461E01DC0E09125
:103FC000A8020E2E000CFF0BE75EFE4F82818130AF
:103FD00091F49091B2028091190198130CC09091C4
:103FE000A70280911A01981306C09091A6028091B1
:103FF0001B01891714F760E086E00E94C9118091C7
:10400000AB02813011F461E01DC0E091A8020E2ED8
:10401000000CFF0BE15FFE4F8281813091F49091A3
:10402000B20280910F0198130CC09091A702809169
:104030001001981306C09091A60280911101891772
:1040400014F760E08AE00E94C9118091AC028130CF
:1040500011F461E01DC0E091A8020E2E000CFF0BD0
:10406000EB5FFE4F8281813091F49091B20280919A
:10407000050198130CC09091A70280910601981336
:1040800006C09091A60280910701891714F760E09D
:1040900084E00E94C91180919D0290919E02009738
:1040A00031F48091B20289508C3020F443C08130C9
:1040B0009105F1F58091B1028130C1F420E030E04A
:1040C00040E85FE36091AD027091AE028091AF0273
:1040D0009091B0020E942B216093AD027093AE02CA
:1040E0008093AF029093B0020E94A01020E030E0D5
:1040F00048E453E46091AD027091AE028091AF024A
:104100009091B0020E94A323811116C01092AD02BB
:104110001092AE021092AF021092B00210921603EB
:1041200060E08BE093E00E9413131092B10204C090
:10413000029711F40E94A010A114B10411F40C9480
:104140007B170E9400000C947117CF93DF93EFEF61
:10415000F2E01382128288EE93E0A0E0B0E0848364
:104160009583A683B7838FE391E091838083CBE42B
:10417000D3E082E388831E821F8218861986188AFC
:1041800083E08E8782E08F8760E083E00E94F911F0
:1041900060E08F850E94F91162E088890E94F91120
:1041A0008E850E94A0118B838F850E94A0112B8188
:1041B000880F991F820F911D8B838C83EBE0F3E0B6
:1041C000138212828FE3848384E1818784E0828773
:1041D00013868FE491E0918380831586148616867A
:1041E0001786CF01DF91CF910C946E13991B79E064
:1041F00004C0991F961708F0961B881F7A95C9F777
:1042000080950895A1E21A2EAA1BBB1BFD010DC0CB
:10421000AA1FBB1FEE1FFF1FA217B307E407F50776
:1042200020F0A21BB30BE40BF50B661F771F881F52
:10423000991F1A9469F760957095809590959B01E8
:10424000AC01BD01CF010895EE0FFF1F0590F49161
:10425000E02D09945058BB27AA270E9442210C94B4
:10426000E3230E94D52338F00E94DC2320F039F4A8
:104270009F3F19F426F40C94D2230EF4E095E7FB4B
:104280000C94CC23E92F0E94F42358F3BA17620749
:1042900073078407950720F079F4A6F50C9416248B
:1042A0000EF4E0950B2EBA2FA02D0B01B901900151
:1042B0000C01CA01A0011124FF27591B99F0593F95
:1042C00050F4503E68F11A16F040A22F232F342FDD
:1042D0004427585FF3CF469537952795A795F0402B
:1042E0005395C9F77EF41F16BA0B620B730B840B40
:1042F000BAF09150A1F0FF0FBB1F661F771F881FF8
:10430000C2F70EC0BA0F621F731F841F48F487954F
:1043100077956795B795F7959E3F08F0B0CF939541
:10432000880F08F09927EE0F979587950895CF93FA
:10433000DF938230910510F482E090E0E091AF03CA
:10434000F091B00320E030E0C0E0D0E0309711F110
:104350004081518148175907C0F04817590761F447
:1043600082819381209719F09B838A832BC090933D
:10437000B0038093AF0326C02115310519F0421711
:10438000530718F49A01BE01DF01EF010280F381A7
:10439000E02DDCCF2115310509F1281B390B243024
:1043A000310590F412968D919C91139761157105CA
:1043B00021F0FB019383828304C09093B003809328
:1043C000AF03FD01329644C0FD01E20FF31F81935C
:1043D0009193225031092D933C933AC02091AD0323
:1043E0003091AE03232B41F420912F013091300105
:1043F0003093AE032093AD0320912D0130912E0117
:104400002115310541F42DB73EB74091310150914E
:104410003201241B350BE091AD03F091AE03E2179E
:10442000F307A0F42E1B3F0B2817390778F0AC01D7
:104430004E5F5F4F2417350748F04E0F5F1F5093B4
:10444000AE034093AD038193919302C0E0E0F0E0AE
:10445000CF01DF91CF9108950F931F93CF93DF93F7
:10446000009709F48CC0FC013297138212820091EC
:10447000AF031091B0030115110581F42081318142
:10448000820F931F2091AD033091AE032817390797
:1044900079F5F093AE03E093AD0371C0D80140E02D
:1044A00050E0AE17BF0750F412962D913C91139730
:1044B000AD012115310509F1D901F3CF9D01DA01D3
:1044C0003383228360817181860F971F8217930740
:1044D00069F4EC0128813981260F371F2E5F3F4F89
:1044E000318320838A819B8193838283452B29F4A6
:1044F000F093B003E093AF0342C01396FC93EE93A6
:104500001297ED01499159919E01240F351FE21731
:10451000F30771F480819181840F951F02961196A3
:104520009C938E938281938113969C938E93129782
:10453000E0E0F0E0D80112968D919C9113970097DE
:1045400019F0F8018C01F6CF8D919C9198012E5FA6
:104550003F4F820F931F2091AD033091AE03281778
:10456000390769F4309729F41092B0031092AF0321
:1045700002C0138212821093AE030093AD03DF9149
:10458000CF911F910F910895A0E0B0E0EAECF2E224
:104590000C943724EC01009721F4CB010E94972161
:1045A000B8C0FC01E60FF71F9C0122503109E21749
:1045B000F30708F4ACC0D9010D911C9111970617AF
:1045C0001707B0F00530110508F49FC0C801049723
:1045D0008617970708F499C002501109061B170B9C
:1045E000019311936D937C93CF010E942C228DC077
:1045F0005B01A01AB10A4C01800E911EA091AF037D
:10460000B091B00340E050E0E12CF12C109709F498
:104610004AC0A815B905D1F56D907C90119763013A
:1046200082E0C80ED11CCA14DB0480F1A3014A1930
:104630005B096A0182E0C80ED11C1296BC901297E9
:104640001396AC91B5E0CB16D10440F0B282A383AF
:1046500051834083D9016D937C930AC00E5F1F4F35
:10466000C301800F911FF90191838083EB2DFA2FF5
:10467000E114F10431F0D7011396FC93EE931297F5
:1046800044C0F093B003E093AF033FC08D919C9181
:1046900011974817590708F4AC017D0112960D9047
:1046A000BC91A02DB3CF8091AD039091AE0388153E
:1046B0009905E1F446175707C8F480912D019091B0
:1046C0002E01009741F48DB79EB740913101509172
:1046D0003201841B950BE817F907C8F4F093AE0379
:1046E000E093AD03F901718360830FC0CB010E9499
:1046F00097217C01009759F0A801BE010E949323E5
:10470000CE010E942C22C70104C0CE0102C080E06D
:1047100090E0CDB7DEB7EEE00C94532481E090E05A
:10472000F8940C946A24FB01DC0102C001900D9204
:1047300041505040D8F70895FB01DC0101900D92E3
:104740000020E1F708950E94A82308F481E008956D
:10475000990F0008550FAA0BE0E8FEEF1616170692
:10476000E807F907C0F012161306E407F50798F0FA
:10477000621B730B840B950B39F40A2661F0232B13
:10478000242B252B21F408950A2609F4A140A6958F
:104790008FEF811D811D089597F99F6780E870E074
:1047A00060E008959FEF80EC089500240A941616A7
:1047B000170618060906089500240A94121613060F
:1047C000140605060895092E0394000C11F488239D
:1047D00052F0BB0F40F4BF2B11F460FF04C06F5FB9
:1047E0007F4F8F4F9F4F089557FD9058440F551F8F
:1047F00059F05F3F71F04795880F97FB991F61F063
:104800009F3F79F087950895121613061406551FD9
:10481000F2CF4695F1DF08C0161617061806991F45
:10482000F1CF86957105610508940895E894BB273A
:1048300066277727CB0197F90895F999FECF92BDA6
:1048400081BDF89A992780B50895262FF999FECF52
:104850001FBA92BD81BD20BD0FB6F894FA9AF99A9D
:104860000FBE019608952F923F924F925F926F92E2
:104870007F928F929F92AF92BF92CF92DF92EF92F0
:10488000FF920F931F93CF93DF93CDB7DEB7CA1B71
:10489000DB0B0FB6F894DEBF0FBECDBF09942A889C
:1048A000398848885F846E847D848C849B84AA8444
:1048B000B984C884DF80EE80FD800C811B81AA81D1
:1048C000B981CE0FD11D0FB6F894DEBF0FBECDBF9C
:0848D000ED010895F894FFCFFB
:1048D80047114711010E2A17000000000000000DC3
:1048E800202100000000000000151617000000003D
:1048F800000000072D1E000000010101010000B1A9
:10490800038000000040001400540000000000EC88
:1049180001BC01B401A001910190010000000068F0
:1049280013CE1052657365742073657474696E676D
:1049380073003000436100202A20004E5000466575
:1049480000CCE800D0A2D095D0A1D0A220D09FD092
:104958009ED09CD09F00D09FD09ED09CD09FD0ABA3
:104968003A00CAE0EBE8E9203100CCE0EAF0EE20BA
:104978003200C6E5EBE5E7EE203300CCE8EAF0EEDE
:1049880020340054696D6520736574200044617497
:10499800653A20004C434420004155544F004F468F
:1049A8004620004F4E2020002D00617175616B6D0F
:1049B800762E636F6D00444F534552207665725FC3
:1049C80030325F30395F3230323100D092D0A0D0EF
:1049D80095D09CD0AF00D094D095D09DD0AC20D0AD
:1049E8009F20D09220D0A120D0A720D09F20D0A156
:1049F80020D092003E3E0020D0A1D095D09A00D081
:104A080092D0A1D09A00D09FD09DD09400D092D0BF
:104A1800A2D0A000D0A1D0A0D09400D0A7D0A2D07E
:104A28009200D09FD0A2D09D00D0A1D0A3D0910059
:104A38004100420045004B004D004800430054002F
:0C4A480058006F007000630079007800D7
:107800000C94343C0C94513C0C94513C0C94513CE1
:107810000C94513C0C94513C0C94513C0C94513CB4
:107820000C94513C0C94513C0C94513C0C94513CA4
:107830000C94513C0C94513C0C94513C0C94513C94
:107840000C94513C0C94513C0C94513C0C94513C84
:107850000C94513C0C94513C0C94513C0C94513C74
:107860000C94513C0C94513C11241FBECFEFD8E036
:10787000DEBFCDBF11E0A0E0B1E0ECE9FFE702C060
:1078800005900D92A230B107D9F712E0A2E0B1E065
:1078900001C01D92AD30B107E1F70E942D3D0C945F
:1078A000CC3F0C94003C982F959595959595959582
:1078B000905D8F708A307CF0282F295A8091C0000B
:1078C00085FFFCCF9093C6008091C00085FFFCCF60
:1078D0002093C6000895282F205DF0CF982F809127
:1078E000C00085FFFCCF9093C6000895EF92FF92F1
:1078F0000F931F93EE24FF2487018091C00087FD22
:1079000017C00894E11CF11C011D111D81E4E8164B
:1079100082E4F8068FE0080780E0180770F3E09132
:107920000401F091050109958091C00087FFE9CF1E
:107930008091C6001F910F91FF90EF9008950E94D3
:10794000763C982F8091C00085FFFCCF9093C600B5
:1079500091362CF490330CF09053892F089597555D
:10796000892F08951F930E949F3C182F0E949F3CCF
:107970001295107F810F1F9108951F93182F882350
:1079800021F00E94763C1150E1F71F9108951F935A
:10799000182F0E94763C803249F0809103018F5F5E
:1079A000809303018530C1F01F9108958091C0003C
:1079B00085FFFCCF84E18093C6008091C00085FFE5
:1079C000FCCF1093C6008091C00085FFFCCF80E102
:1079D0008093C6001F910895E0910401F091050184
:1079E00009951F9108950E94763C803241F0809164
:1079F00003018F5F80930301853081F008958091AA
:107A0000C00085FFFCCF84E18093C6008091C00058
:107A100085FFFCCF80E18093C6000895E0910401CA
:107A2000F09105010995089540E951E08823A1F0FE
:107A30002D9A28EE33E0FA013197F1F721503040CA
:107A4000D1F72D9828EE33E0FA013197F1F7215064
:107A50003040D1F7815061F708953F924F925F9285
:107A60006F927F928F929F92AF92BF92CF92DF924E
:107A7000EF92FF920F931F93CF93DF93000080E16B
:107A80008093C4001092C50088E18093C10086E015
:107A90008093C2005098589A259A81E00E94143D24
:107AA00024E1F22E9EE1E92E85E9D82E0FE0C02ECA
:107AB00010E1B12EAA24A394B1E49B2EA6E58A2E50
:107AC000F2E57F2EE0E26E2E79E4572E63E5462E36
:107AD00050E5352E0E94763C8033B1F18133B9F107
:107AE000803409F46FC0813409F476C0823409F41B
:107AF00085C0853409F488C0803531F1823521F1A3
:107B0000813511F1853509F485C0863509F48DC0BC
:107B1000843609F496C0843709F403C1853709F423
:107B200072C1863709F466C0809103018F5F80932C
:107B30000301853079F6E0910401F0910501099582
:107B40000E94763C803351F60E94F33CC3CF0E94E2
:107B5000763C803249F78091C00085FFFCCFF092DF
:107B6000C6008091C00085FFFCCF9092C600809136
:107B7000C00085FFFCCF8092C6008091C00085FFC9
:107B8000FCCF7092C6008091C00085FFFCCF609250
:107B9000C6008091C00085FFFCCF5092C600809146
:107BA000C00085FFFCCF4092C6008091C00085FFD9
:107BB000FCCF3092C6008091C00085FFFCCFB09210
:107BC000C60088CF0E94763C863808F4BDCF0E945C
:107BD000763C0E94F33C7ECF0E94763C803809F4CC
:107BE0009CC0813809F40BC1823809F43CC1883942
:107BF00009F48FC080E00E94C73C6CCF84E10E94F2
:107C0000BD3C0E94F33C66CF85E00E94BD3C0E94D3
:107C1000F33C60CF0E94763C809306010E94763C44
:107C2000809307010E94F33C55CF0E94763C80333D
:107C300009F41DC183E00E94BD3C80E00E94C73C66
:107C400049CF0E94763C809309020E94763C809343
:107C5000080280910C028E7F80930C020E94763C79
:107C6000853409F415C18091080290910902892B8D
:107C700089F000E010E00E94763CF801E85FFE4FDA
:107C800080830F5F1F4F80910802909109020817AF
:107C9000190788F30E94763C803209F045CF809125
:107CA0000C0280FF01C16091060170910701660F0F
:107CB000771F7093070160930601A0910802B091AD
:107CC00009021097C9F0E8E0F1E09B01AD014E0F09
:107CD0005F1FF999FECF32BD21BD819180BDFA9A17
:107CE000F99A2F5F3F4FE417F50799F76A0F7B1F4B
:107CF00070930701609306018091C00085FFFCCF5F
:107D0000F092C6008091C00085FFFCCFB092C60003
:107D1000E1CE83E00E94C73CDDCE82E00E94C73CFA
:107D2000D9CE0E94763C809309020E94763C8093D3
:107D300008028091060190910701880F991F909386
:107D40000701809306010E94763C853409F4A6C0A1
:107D500080910C028E7F80930C020E94763C8032D0
:107D600009F0B8CE8091C00085FFFCCFF092C6002C
:107D7000609108027091090261157105B9F140E046
:107D800050E080910C02A82FA170B82FB27011C0E2
:107D9000BB2309F45CC0E0910601F0910701319624
:107DA000F0930701E09306014F5F5F4F46175707B7
:107DB000E8F4AA2369F3F999FECF209106013091E6
:107DC000070132BD21BDF89A90B58091C00085FFB2
:107DD000FCCF9093C6002F5F3F4F30930701209355
:107DE00006014F5F5F4F4617570718F38091C00099
:107DF00085FDE5CE8091C00085FFF8CFE0CE81E023
:107E00000E94C73C67CE0E94763C803209F08CCE3F
:107E10008091C00085FFFCCFF092C6008091C00029
:107E200085FFFCCFE092C6008091C00085FFFCCFAB
:107E3000D092C6008091C00085FFFCCFC092C600E2
:107E40008091C00085FFFCCFB092C60043CEE09188
:107E50000601F091070194918091C00085FFFCCF4D
:107E60009093C6009CCF80E10E94C73C33CE0E9415
:107E7000763C0E94763C182F0E94763C112309F430
:107E800083C0113009F484C08FE00E94C73C22CE29
:107E900080910C02816080930C02E5CE80910C02EF
:107EA000816080930C0259CF809107018823880F4D
:107EB000880B8A2180930B02809106019091070123
:107EC000880F991F90930701809306018091080203
:107ED00080FF09C080910802909109020196909359
:107EE000090280930802F894F999FECF1127E091D6
:107EF0000601F0910701C8E0D1E08091080290915D
:107F00000902103091F40091570001700130D9F34B
:107F100003E000935700E89500915700017001308D
:107F2000D9F301E100935700E89509901990009169
:107F3000570001700130D9F301E000935700E89534
:107F40001395103498F011270091570001700130FB
:107F5000D9F305E000935700E895009157000170B0
:107F60000130D9F301E100935700E895329602976A
:107F700009F0C7CF103011F00296E5CF112480919F
:107F8000C00085FFB9CEBCCE8EE10E94C73CA2CD19
:0C7F900085E90E94C73C9ECDF894FFCF0D
:027F9C00800063
:040000030000780081
:00000001FF
